{
  "contractName": "CampaignWallet",
  "abi": [
    {
      "inputs": [
        {
          "internalType": "address[]",
          "name": "payees",
          "type": "address[]"
        },
        {
          "internalType": "uint256[]",
          "name": "shares",
          "type": "uint256[]"
        },
        {
          "internalType": "string[]",
          "name": "names",
          "type": "string[]"
        },
        {
          "internalType": "string[]",
          "name": "reasons",
          "type": "string[]"
        }
      ],
      "stateMutability": "payable",
      "type": "constructor"
    },
    {
      "anonymous": false,
      "inputs": [
        {
          "indexed": true,
          "internalType": "contract IERC20",
          "name": "token",
          "type": "address"
        },
        {
          "indexed": false,
          "internalType": "address",
          "name": "to",
          "type": "address"
        },
        {
          "indexed": false,
          "internalType": "uint256",
          "name": "amount",
          "type": "uint256"
        }
      ],
      "name": "ERC20PaymentReleased",
      "type": "event"
    },
    {
      "anonymous": false,
      "inputs": [
        {
          "indexed": false,
          "internalType": "address",
          "name": "account",
          "type": "address"
        },
        {
          "indexed": false,
          "internalType": "uint256",
          "name": "shares",
          "type": "uint256"
        }
      ],
      "name": "PayeeAdded",
      "type": "event"
    },
    {
      "anonymous": false,
      "inputs": [
        {
          "indexed": false,
          "internalType": "address",
          "name": "from",
          "type": "address"
        },
        {
          "indexed": false,
          "internalType": "uint256",
          "name": "amount",
          "type": "uint256"
        }
      ],
      "name": "PaymentReceived",
      "type": "event"
    },
    {
      "anonymous": false,
      "inputs": [
        {
          "indexed": false,
          "internalType": "address",
          "name": "to",
          "type": "address"
        },
        {
          "indexed": false,
          "internalType": "uint256",
          "name": "amount",
          "type": "uint256"
        }
      ],
      "name": "PaymentReleased",
      "type": "event"
    },
    {
      "inputs": [
        {
          "internalType": "uint256",
          "name": "index",
          "type": "uint256"
        }
      ],
      "name": "payee",
      "outputs": [
        {
          "internalType": "address",
          "name": "",
          "type": "address"
        }
      ],
      "stateMutability": "view",
      "type": "function"
    },
    {
      "inputs": [
        {
          "internalType": "address payable",
          "name": "account",
          "type": "address"
        }
      ],
      "name": "release",
      "outputs": [],
      "stateMutability": "nonpayable",
      "type": "function"
    },
    {
      "inputs": [
        {
          "internalType": "contract IERC20",
          "name": "token",
          "type": "address"
        },
        {
          "internalType": "address",
          "name": "account",
          "type": "address"
        }
      ],
      "name": "release",
      "outputs": [],
      "stateMutability": "nonpayable",
      "type": "function"
    },
    {
      "inputs": [
        {
          "internalType": "contract IERC20",
          "name": "token",
          "type": "address"
        },
        {
          "internalType": "address",
          "name": "account",
          "type": "address"
        }
      ],
      "name": "released",
      "outputs": [
        {
          "internalType": "uint256",
          "name": "",
          "type": "uint256"
        }
      ],
      "stateMutability": "view",
      "type": "function"
    },
    {
      "inputs": [
        {
          "internalType": "address",
          "name": "account",
          "type": "address"
        }
      ],
      "name": "released",
      "outputs": [
        {
          "internalType": "uint256",
          "name": "",
          "type": "uint256"
        }
      ],
      "stateMutability": "view",
      "type": "function"
    },
    {
      "inputs": [
        {
          "internalType": "address",
          "name": "account",
          "type": "address"
        }
      ],
      "name": "shares",
      "outputs": [
        {
          "internalType": "uint256",
          "name": "",
          "type": "uint256"
        }
      ],
      "stateMutability": "view",
      "type": "function"
    },
    {
      "inputs": [
        {
          "internalType": "contract IERC20",
          "name": "token",
          "type": "address"
        }
      ],
      "name": "totalReleased",
      "outputs": [
        {
          "internalType": "uint256",
          "name": "",
          "type": "uint256"
        }
      ],
      "stateMutability": "view",
      "type": "function"
    },
    {
      "inputs": [],
      "name": "totalReleased",
      "outputs": [
        {
          "internalType": "uint256",
          "name": "",
          "type": "uint256"
        }
      ],
      "stateMutability": "view",
      "type": "function"
    },
    {
      "inputs": [],
      "name": "totalShares",
      "outputs": [
        {
          "internalType": "uint256",
          "name": "",
          "type": "uint256"
        }
      ],
      "stateMutability": "view",
      "type": "function"
    },
    {
      "stateMutability": "payable",
      "type": "receive"
    },
    {
      "inputs": [],
      "name": "beneficiaries",
      "outputs": [
        {
          "components": [
            {
              "internalType": "address",
              "name": "id",
              "type": "address"
            },
            {
              "internalType": "string",
              "name": "name",
              "type": "string"
            },
            {
              "internalType": "string",
              "name": "reason",
              "type": "string"
            }
          ],
          "internalType": "struct CampaignWallet.Beneficiary[]",
          "name": "",
          "type": "tuple[]"
        }
      ],
      "stateMutability": "view",
      "type": "function"
    }
  ],
  "bytecode": "0x608060405260405162002b2938038062002b298339818101604052810190620000299190620008b0565b8383805182511462000072576040517f08c379a0000000000000000000000000000000000000000000000000000000008152600401620000699062000bad565b60405180910390fd5b6000825111620000b9576040517f08c379a0000000000000000000000000000000000000000000000000000000008152600401620000b09062000bf1565b60405180910390fd5b60005b825181101562000179576200016383828151811062000104577f4e487b7100000000000000000000000000000000000000000000000000000000600052603260045260246000fd5b602002602001015183838151811062000146577f4e487b7100000000000000000000000000000000000000000000000000000000600052603260045260246000fd5b602002602001015162000350640100000000026401000000009004565b8080620001709062000e41565b915050620000bc565b50505060005b8451811015620003455760076040518060600160405280878481518110620001d0577f4e487b7100000000000000000000000000000000000000000000000000000000600052603260045260246000fd5b602002602001015173ffffffffffffffffffffffffffffffffffffffff1681526020018584815181106200022d577f4e487b7100000000000000000000000000000000000000000000000000000000600052603260045260246000fd5b6020026020010151815260200184848151811062000274577f4e487b7100000000000000000000000000000000000000000000000000000000600052603260045260246000fd5b6020026020010151815250908060018154018082558091505060019003906000526020600020906003020160009091909190915060008201518160000160006101000a81548173ffffffffffffffffffffffffffffffffffffffff021916908373ffffffffffffffffffffffffffffffffffffffff16021790555060208201518160010190805190602001906200030d9291906200058a565b5060408201518160020190805190602001906200032c9291906200058a565b50505080806200033c9062000e41565b9150506200017f565b505050505062000f50565b600073ffffffffffffffffffffffffffffffffffffffff168273ffffffffffffffffffffffffffffffffffffffff161415620003c3576040517f08c379a0000000000000000000000000000000000000000000000000000000008152600401620003ba9062000b8b565b60405180910390fd5b6000811162000409576040517f08c379a0000000000000000000000000000000000000000000000000000000008152600401620004009062000c13565b60405180910390fd5b6000600260008473ffffffffffffffffffffffffffffffffffffffff1673ffffffffffffffffffffffffffffffffffffffff16815260200190815260200160002054146200048e576040517f08c379a0000000000000000000000000000000000000000000000000000000008152600401620004859062000bcf565b60405180910390fd5b6004829080600181540180825580915050600190039060005260206000200160009091909190916101000a81548173ffffffffffffffffffffffffffffffffffffffff021916908373ffffffffffffffffffffffffffffffffffffffff16021790555080600260008473ffffffffffffffffffffffffffffffffffffffff1673ffffffffffffffffffffffffffffffffffffffff168152602001908152602001600020819055508060005462000545919062000d3a565b6000819055507f40c340f65e17194d14ddddb073d3c9f888e3cb52b5aae0c6c7706b4fbc905fac82826040516200057e92919062000b5e565b60405180910390a15050565b828054620005989062000e0b565b90600052602060002090601f016020900481019282620005bc576000855562000608565b82601f10620005d757805160ff191683800117855562000608565b8280016001018555821562000608579182015b8281111562000607578251825591602001919060010190620005ea565b5b5090506200061791906200061b565b5090565b5b80821115620006365760008160009055506001016200061c565b5090565b6000620006516200064b8462000c69565b62000c35565b905080838252602082019050828560208602820111156200067157600080fd5b60005b85811015620006a557816200068a8882620007ce565b84526020840193506020830192505060018101905062000674565b5050509392505050565b6000620006c6620006c08462000c98565b62000c35565b9050808382526020820190508260005b858110156200070a5781518501620006ef88826200086c565b845260208401935060208301925050600181019050620006d6565b5050509392505050565b60006200072b620007258462000cc7565b62000c35565b905080838252602082019050828560208602820111156200074b57600080fd5b60005b858110156200077f578162000764888262000899565b8452602084019350602083019250506001810190506200074e565b5050509392505050565b6000620007a06200079a8462000cf6565b62000c35565b905082815260208101848484011115620007b957600080fd5b620007c684828562000dd5565b509392505050565b600081519050620007df8162000f1c565b92915050565b600082601f830112620007f757600080fd5b8151620008098482602086016200063a565b91505092915050565b600082601f8301126200082457600080fd5b815162000836848260208601620006af565b91505092915050565b600082601f8301126200085157600080fd5b81516200086384826020860162000714565b91505092915050565b600082601f8301126200087e57600080fd5b81516200089084826020860162000789565b91505092915050565b600081519050620008aa8162000f36565b92915050565b60008060008060808587031215620008c757600080fd5b600085015167ffffffffffffffff811115620008e257600080fd5b620008f087828801620007e5565b945050602085015167ffffffffffffffff8111156200090e57600080fd5b6200091c878288016200083f565b935050604085015167ffffffffffffffff8111156200093a57600080fd5b620009488782880162000812565b925050606085015167ffffffffffffffff8111156200096657600080fd5b620009748782880162000812565b91505092959194509250565b6200098b8162000d97565b82525050565b6000620009a0602c8362000d29565b91507f5061796d656e7453706c69747465723a206163636f756e74206973207468652060008301527f7a65726f206164647265737300000000000000000000000000000000000000006020830152604082019050919050565b600062000a0860328362000d29565b91507f5061796d656e7453706c69747465723a2070617965657320616e64207368617260008301527f6573206c656e677468206d69736d6174636800000000000000000000000000006020830152604082019050919050565b600062000a70602b8362000d29565b91507f5061796d656e7453706c69747465723a206163636f756e7420616c726561647960008301527f20686173207368617265730000000000000000000000000000000000000000006020830152604082019050919050565b600062000ad8601a8362000d29565b91507f5061796d656e7453706c69747465723a206e6f207061796565730000000000006000830152602082019050919050565b600062000b1a601d8362000d29565b91507f5061796d656e7453706c69747465723a207368617265732061726520300000006000830152602082019050919050565b62000b588162000dcb565b82525050565b600060408201905062000b75600083018562000980565b62000b84602083018462000b4d565b9392505050565b6000602082019050818103600083015262000ba68162000991565b9050919050565b6000602082019050818103600083015262000bc881620009f9565b9050919050565b6000602082019050818103600083015262000bea8162000a61565b9050919050565b6000602082019050818103600083015262000c0c8162000ac9565b9050919050565b6000602082019050818103600083015262000c2e8162000b0b565b9050919050565b6000604051905081810181811067ffffffffffffffff8211171562000c5f5762000c5e62000eed565b5b8060405250919050565b600067ffffffffffffffff82111562000c875762000c8662000eed565b5b602082029050602081019050919050565b600067ffffffffffffffff82111562000cb65762000cb562000eed565b5b602082029050602081019050919050565b600067ffffffffffffffff82111562000ce55762000ce462000eed565b5b602082029050602081019050919050565b600067ffffffffffffffff82111562000d145762000d1362000eed565b5b601f19601f8301169050602081019050919050565b600082825260208201905092915050565b600062000d478262000dcb565b915062000d548362000dcb565b9250827fffffffffffffffffffffffffffffffffffffffffffffffffffffffffffffffff0382111562000d8c5762000d8b62000e8f565b5b828201905092915050565b600062000da48262000dab565b9050919050565b600073ffffffffffffffffffffffffffffffffffffffff82169050919050565b6000819050919050565b60005b8381101562000df557808201518184015260208101905062000dd8565b8381111562000e05576000848401525b50505050565b6000600282049050600182168062000e2457607f821691505b6020821081141562000e3b5762000e3a62000ebe565b5b50919050565b600062000e4e8262000dcb565b91507fffffffffffffffffffffffffffffffffffffffffffffffffffffffffffffffff82141562000e845762000e8362000e8f565b5b600182019050919050565b7f4e487b7100000000000000000000000000000000000000000000000000000000600052601160045260246000fd5b7f4e487b7100000000000000000000000000000000000000000000000000000000600052602260045260246000fd5b7f4e487b7100000000000000000000000000000000000000000000000000000000600052604160045260246000fd5b62000f278162000d97565b811462000f3357600080fd5b50565b62000f418162000dcb565b811462000f4d57600080fd5b50565b611bc98062000f606000396000f3fe6080604052600436106100b2576000357c0100000000000000000000000000000000000000000000000000000000900480638b83209b116100765780638b83209b146101e35780639852595c14610220578063ce7c2ac21461025d578063d79779b21461029a578063e33b7de3146102d7576100f9565b806319165587146100fe5780631d29bd5a146101275780633a98ef3914610152578063406072a91461017d57806348b75044146101ba576100f9565b366100f9577f6ef95f06320e7a25a04a175ca677b7052bdd97131872c2192525a629f51be7706100e0610302565b346040516100ef929190611682565b60405180910390a1005b600080fd5b34801561010a57600080fd5b50610125600480360381019061012091906110b2565b61030a565b005b34801561013357600080fd5b5061013c6104cc565b60405161014991906116ab565b60405180910390f35b34801561015e57600080fd5b506101676106a5565b60405161017491906117cf565b60405180910390f35b34801561018957600080fd5b506101a4600480360381019061019f919061112d565b6106ae565b6040516101b191906117cf565b60405180910390f35b3480156101c657600080fd5b506101e160048036038101906101dc919061112d565b610735565b005b3480156101ef57600080fd5b5061020a60048036038101906102059190611169565b610a19565b604051610217919061163e565b60405180910390f35b34801561022c57600080fd5b5061024760048036038101906102429190611089565b610a87565b60405161025491906117cf565b60405180910390f35b34801561026957600080fd5b50610284600480360381019061027f9190611089565b610ad0565b60405161029191906117cf565b60405180910390f35b3480156102a657600080fd5b506102c160048036038101906102bc9190611104565b610b19565b6040516102ce91906117cf565b60405180910390f35b3480156102e357600080fd5b506102ec610b62565b6040516102f991906117cf565b60405180910390f35b600033905090565b6000600260008373ffffffffffffffffffffffffffffffffffffffff1673ffffffffffffffffffffffffffffffffffffffff168152602001908152602001600020541161038c576040517f08c379a0000000000000000000000000000000000000000000000000000000008152600401610383906116ef565b60405180910390fd5b6000610396610b62565b3073ffffffffffffffffffffffffffffffffffffffff16316103b89190611866565b905060006103cf83836103ca86610a87565b610b6c565b90506000811415610415576040517f08c379a000000000000000000000000000000000000000000000000000000000815260040161040c9061176f565b60405180910390fd5b80600360008573ffffffffffffffffffffffffffffffffffffffff1673ffffffffffffffffffffffffffffffffffffffff16815260200190815260200160002060008282546104649190611866565b92505081905550806001600082825461047d9190611866565b9250508190555061048e8382610bda565b7fdf20fd1e76bc69d672e4814fafb2c449bba3a5369d8359adf9e05e6fde87b05683826040516104bf929190611659565b60405180910390a1505050565b60606007805480602002602001604051908101604052809291908181526020016000905b8282101561069c57838290600052602060002090600302016040518060600160405290816000820160009054906101000a900473ffffffffffffffffffffffffffffffffffffffff1673ffffffffffffffffffffffffffffffffffffffff1673ffffffffffffffffffffffffffffffffffffffff16815260200160018201805461057990611a50565b80601f01602080910402602001604051908101604052809291908181526020018280546105a590611a50565b80156105f25780601f106105c7576101008083540402835291602001916105f2565b820191906000526020600020905b8154815290600101906020018083116105d557829003601f168201915b5050505050815260200160028201805461060b90611a50565b80601f016020809104026020016040519081016040528092919081815260200182805461063790611a50565b80156106845780601f1061065957610100808354040283529160200191610684565b820191906000526020600020905b81548152906001019060200180831161066757829003601f168201915b505050505081525050815260200190600101906104f0565b50505050905090565b60008054905090565b6000600660008473ffffffffffffffffffffffffffffffffffffffff1673ffffffffffffffffffffffffffffffffffffffff16815260200190815260200160002060008373ffffffffffffffffffffffffffffffffffffffff1673ffffffffffffffffffffffffffffffffffffffff16815260200190815260200160002054905092915050565b6000600260008373ffffffffffffffffffffffffffffffffffffffff1673ffffffffffffffffffffffffffffffffffffffff16815260200190815260200160002054116107b7576040517f08c379a00000000000000000000000000000000000000000000000000000000081526004016107ae906116ef565b60405180910390fd5b60006107c283610b19565b8373ffffffffffffffffffffffffffffffffffffffff166370a08231306040518263ffffffff167c0100000000000000000000000000000000000000000000000000000000028152600401610817919061163e565b60206040518083038186803b15801561082f57600080fd5b505afa158015610843573d6000803e3d6000fd5b505050506040513d601f19601f820116820180604052508101906108679190611192565b6108719190611866565b90506000610889838361088487876106ae565b610b6c565b905060008114156108cf576040517f08c379a00000000000000000000000000000000000000000000000000000000081526004016108c69061176f565b60405180910390fd5b80600660008673ffffffffffffffffffffffffffffffffffffffff1673ffffffffffffffffffffffffffffffffffffffff16815260200190815260200160002060008573ffffffffffffffffffffffffffffffffffffffff1673ffffffffffffffffffffffffffffffffffffffff168152602001908152602001600020600082825461095b9190611866565b9250508190555080600560008673ffffffffffffffffffffffffffffffffffffffff1673ffffffffffffffffffffffffffffffffffffffff16815260200190815260200160002060008282546109b19190611866565b925050819055506109c3848483610ce5565b8373ffffffffffffffffffffffffffffffffffffffff167f3be5b7a71e84ed12875d241991c70855ac5817d847039e17a9d895c1ceb0f18a8483604051610a0b929190611682565b60405180910390a250505050565b600060048281548110610a55577f4e487b7100000000000000000000000000000000000000000000000000000000600052603260045260246000fd5b9060005260206000200160009054906101000a900473ffffffffffffffffffffffffffffffffffffffff169050919050565b6000600360008373ffffffffffffffffffffffffffffffffffffffff1673ffffffffffffffffffffffffffffffffffffffff168152602001908152602001600020549050919050565b6000600260008373ffffffffffffffffffffffffffffffffffffffff1673ffffffffffffffffffffffffffffffffffffffff168152602001908152602001600020549050919050565b6000600560008373ffffffffffffffffffffffffffffffffffffffff1673ffffffffffffffffffffffffffffffffffffffff168152602001908152602001600020549050919050565b6000600154905090565b600081600054600260008773ffffffffffffffffffffffffffffffffffffffff1673ffffffffffffffffffffffffffffffffffffffff1681526020019081526020016000205485610bbd91906118ed565b610bc791906118bc565b610bd19190611947565b90509392505050565b803073ffffffffffffffffffffffffffffffffffffffff16311015610c34576040517f08c379a0000000000000000000000000000000000000000000000000000000008152600401610c2b9061172f565b60405180910390fd5b60008273ffffffffffffffffffffffffffffffffffffffff1682604051610c5a90611629565b60006040518083038185875af1925050503d8060008114610c97576040519150601f19603f3d011682016040523d82523d6000602084013e610c9c565b606091505b5050905080610ce0576040517f08c379a0000000000000000000000000000000000000000000000000000000008152600401610cd79061170f565b60405180910390fd5b505050565b610d828363a9059cbb7c0100000000000000000000000000000000000000000000000000000000028484604051602401610d20929190611682565b604051602081830303815290604052907bffffffffffffffffffffffffffffffffffffffffffffffffffffffff19166020820180517bffffffffffffffffffffffffffffffffffffffffffffffffffffffff8381831617835250505050610d87565b505050565b6000610de9826040518060400160405280602081526020017f5361666545524332303a206c6f772d6c6576656c2063616c6c206661696c65648152508573ffffffffffffffffffffffffffffffffffffffff16610e4e9092919063ffffffff16565b9050600081511115610e495780806020019051810190610e0991906110db565b610e48576040517f08c379a0000000000000000000000000000000000000000000000000000000008152600401610e3f906117af565b60405180910390fd5b5b505050565b6060610e5d8484600085610e66565b90509392505050565b6060823073ffffffffffffffffffffffffffffffffffffffff16311015610ec2576040517f08c379a0000000000000000000000000000000000000000000000000000000008152600401610eb99061174f565b60405180910390fd5b610ecb85610f91565b610f0a576040517f08c379a0000000000000000000000000000000000000000000000000000000008152600401610f019061178f565b60405180910390fd5b6000808673ffffffffffffffffffffffffffffffffffffffff168587604051610f339190611612565b60006040518083038185875af1925050503d8060008114610f70576040519150601f19603f3d011682016040523d82523d6000602084013e610f75565b606091505b5091509150610f85828286610fa4565b92505050949350505050565b600080823b905060008111915050919050565b60608315610fb457829050611004565b600083511115610fc75782518084602001fd5b816040517f08c379a0000000000000000000000000000000000000000000000000000000008152600401610ffb91906116cd565b60405180910390fd5b9392505050565b60008135905061101a81611b20565b92915050565b60008135905061102f81611b37565b92915050565b60008151905061104481611b4e565b92915050565b60008135905061105981611b65565b92915050565b60008135905061106e81611b7c565b92915050565b60008151905061108381611b7c565b92915050565b60006020828403121561109b57600080fd5b60006110a98482850161100b565b91505092915050565b6000602082840312156110c457600080fd5b60006110d284828501611020565b91505092915050565b6000602082840312156110ed57600080fd5b60006110fb84828501611035565b91505092915050565b60006020828403121561111657600080fd5b60006111248482850161104a565b91505092915050565b6000806040838503121561114057600080fd5b600061114e8582860161104a565b925050602061115f8582860161100b565b9150509250929050565b60006020828403121561117b57600080fd5b60006111898482850161105f565b91505092915050565b6000602082840312156111a457600080fd5b60006111b284828501611074565b91505092915050565b60006111c783836115ac565b905092915050565b6111d8816119e7565b82525050565b6111e78161197b565b82525050565b6111f68161197b565b82525050565b6000611207826117fa565b6112118185611828565b935083602082028501611223856117ea565b8060005b8581101561125f578484038952815161124085826111bb565b945061124b8361181b565b925060208a01995050600181019050611227565b50829750879550505050505092915050565b600061127c82611805565b6112868185611839565b9350611296818560208601611a1d565b80840191505092915050565b60006112ad82611810565b6112b78185611844565b93506112c7818560208601611a1d565b6112d081611b0f565b840191505092915050565b60006112e682611810565b6112f08185611855565b9350611300818560208601611a1d565b61130981611b0f565b840191505092915050565b6000611321602683611855565b91507f5061796d656e7453706c69747465723a206163636f756e7420686173206e6f2060008301527f73686172657300000000000000000000000000000000000000000000000000006020830152604082019050919050565b6000611387603a83611855565b91507f416464726573733a20756e61626c6520746f2073656e642076616c75652c207260008301527f6563697069656e74206d617920686176652072657665727465640000000000006020830152604082019050919050565b60006113ed601d83611855565b91507f416464726573733a20696e73756666696369656e742062616c616e63650000006000830152602082019050919050565b600061142d602683611855565b91507f416464726573733a20696e73756666696369656e742062616c616e636520666f60008301527f722063616c6c00000000000000000000000000000000000000000000000000006020830152604082019050919050565b6000611493602b83611855565b91507f5061796d656e7453706c69747465723a206163636f756e74206973206e6f742060008301527f647565207061796d656e740000000000000000000000000000000000000000006020830152604082019050919050565b60006114f9600083611839565b9150600082019050919050565b6000611513601d83611855565b91507f416464726573733a2063616c6c20746f206e6f6e2d636f6e74726163740000006000830152602082019050919050565b6000611553602a83611855565b91507f5361666545524332303a204552433230206f7065726174696f6e20646964206e60008301527f6f742073756363656564000000000000000000000000000000000000000000006020830152604082019050919050565b60006060830160008301516115c460008601826111de565b50602083015184820360208601526115dc82826112a2565b915050604083015184820360408601526115f682826112a2565b9150508091505092915050565b61160c816119dd565b82525050565b600061161e8284611271565b915081905092915050565b6000611634826114ec565b9150819050919050565b600060208201905061165360008301846111ed565b92915050565b600060408201905061166e60008301856111cf565b61167b6020830184611603565b9392505050565b600060408201905061169760008301856111ed565b6116a46020830184611603565b9392505050565b600060208201905081810360008301526116c581846111fc565b905092915050565b600060208201905081810360008301526116e781846112db565b905092915050565b6000602082019050818103600083015261170881611314565b9050919050565b600060208201905081810360008301526117288161137a565b9050919050565b60006020820190508181036000830152611748816113e0565b9050919050565b6000602082019050818103600083015261176881611420565b9050919050565b6000602082019050818103600083015261178881611486565b9050919050565b600060208201905081810360008301526117a881611506565b9050919050565b600060208201905081810360008301526117c881611546565b9050919050565b60006020820190506117e46000830184611603565b92915050565b6000819050602082019050919050565b600081519050919050565b600081519050919050565b600081519050919050565b6000602082019050919050565b600082825260208201905092915050565b600081905092915050565b600082825260208201905092915050565b600082825260208201905092915050565b6000611871826119dd565b915061187c836119dd565b9250827fffffffffffffffffffffffffffffffffffffffffffffffffffffffffffffffff038211156118b1576118b0611a82565b5b828201905092915050565b60006118c7826119dd565b91506118d2836119dd565b9250826118e2576118e1611ab1565b5b828204905092915050565b60006118f8826119dd565b9150611903836119dd565b9250817fffffffffffffffffffffffffffffffffffffffffffffffffffffffffffffffff048311821515161561193c5761193b611a82565b5b828202905092915050565b6000611952826119dd565b915061195d836119dd565b9250828210156119705761196f611a82565b5b828203905092915050565b6000611986826119bd565b9050919050565b6000611998826119bd565b9050919050565b60008115159050919050565b60006119b68261197b565b9050919050565b600073ffffffffffffffffffffffffffffffffffffffff82169050919050565b6000819050919050565b60006119f2826119f9565b9050919050565b6000611a0482611a0b565b9050919050565b6000611a16826119bd565b9050919050565b60005b83811015611a3b578082015181840152602081019050611a20565b83811115611a4a576000848401525b50505050565b60006002820490506001821680611a6857607f821691505b60208210811415611a7c57611a7b611ae0565b5b50919050565b7f4e487b7100000000000000000000000000000000000000000000000000000000600052601160045260246000fd5b7f4e487b7100000000000000000000000000000000000000000000000000000000600052601260045260246000fd5b7f4e487b7100000000000000000000000000000000000000000000000000000000600052602260045260246000fd5b6000601f19601f8301169050919050565b611b298161197b565b8114611b3457600080fd5b50565b611b408161198d565b8114611b4b57600080fd5b50565b611b578161199f565b8114611b6257600080fd5b50565b611b6e816119ab565b8114611b7957600080fd5b50565b611b85816119dd565b8114611b9057600080fd5b5056fea2646970667358221220f8525d9347e42a9a959749ed0dc2613aa173310b9972b813842cd9f62d5bd9db64736f6c63430008000033",
  "immutableReferences": {},
  "source": "// SPDX-License-Identifier: MIT\npragma solidity ^0.8.0;\n\nimport \"@openzeppelin/contracts/finance/PaymentSplitter.sol\";\n\ncontract CampaignWallet is PaymentSplitter {\n    Beneficiary[] _beneficiaries;\n\n    struct Beneficiary {\n        address id;\n        string name;\n        string reason;\n    }\n\n    constructor(\n        address[] memory payees, uint256[] memory shares,\n        string[] memory names, string[] memory reasons\n    )\n        PaymentSplitter(payees, shares) payable \n    {\n        for (uint256 i = 0; i < payees.length; i++) {\n            _beneficiaries.push(Beneficiary({ id: payees[i], name: names[i], reason: reasons[i] }));\n        }\n    }\n\n    function beneficiaries() public view returns (Beneficiary[] memory) {\n        return _beneficiaries;\n    }\n}\n",
  "sourcePath": "E:\\Hackathon\\smart-charity-main\\contracts\\CampaignWallet.sol",
  "compiler": {
    "name": "solc",
    "version": "0.8.0+commit.c7dfd78e.Emscripten.clang"
  },
  "schemaVersion": "3.4.3",
  "updatedAt": "2021-12-11T13:54:56.020Z",
  "networkType": "ethereum",
  "devdoc": {
    "kind": "dev",
    "methods": {
      "payee(uint256)": {
        "details": "Getter for the address of the payee number `index`."
      },
      "release(address)": {
        "details": "Triggers a transfer to `account` of the amount of Ether they are owed, according to their percentage of the total shares and their previous withdrawals."
      },
      "release(address,address)": {
        "details": "Triggers a transfer to `account` of the amount of `token` tokens they are owed, according to their percentage of the total shares and their previous withdrawals. `token` must be the address of an IERC20 contract."
      },
      "released(address)": {
        "details": "Getter for the amount of Ether already released to a payee."
      },
      "released(address,address)": {
        "details": "Getter for the amount of `token` tokens already released to a payee. `token` should be the address of an IERC20 contract."
      },
      "shares(address)": {
        "details": "Getter for the amount of shares held by an account."
      },
      "totalReleased()": {
        "details": "Getter for the total amount of Ether already released."
      },
      "totalReleased(address)": {
        "details": "Getter for the total amount of `token` already released. `token` should be the address of an IERC20 contract."
      },
      "totalShares()": {
        "details": "Getter for the total shares held by payees."
      }
    },
    "version": 1
  },
  "userdoc": {
    "kind": "user",
    "methods": {},
    "version": 1
  }
}